{
  "contractName": "Ownership",
  "abi": [
    {
      "constant": true,
      "inputs": [],
      "name": "owner",
      "outputs": [
        {
          "name": "",
          "type": "address"
        }
      ],
      "payable": false,
      "stateMutability": "view",
      "type": "function"
    },
    {
      "inputs": [],
      "payable": false,
      "stateMutability": "nonpayable",
      "type": "constructor"
    },
    {
      "constant": false,
      "inputs": [
        {
          "name": "identity",
          "type": "bytes"
        },
        {
          "name": "root",
          "type": "bytes"
        },
        {
          "name": "signature",
          "type": "bytes"
        }
      ],
      "name": "publish",
      "outputs": [],
      "payable": false,
      "stateMutability": "nonpayable",
      "type": "function"
    },
    {
      "constant": true,
      "inputs": [
        {
          "name": "identity",
          "type": "bytes"
        }
      ],
      "name": "getTree",
      "outputs": [
        {
          "name": "",
          "type": "bytes"
        },
        {
          "name": "",
          "type": "bytes"
        }
      ],
      "payable": false,
      "stateMutability": "view",
      "type": "function"
    }
  ],
  "bytecode": "0x608060405234801561001057600080fd5b50336000806101000a81548173ffffffffffffffffffffffffffffffffffffffff021916908373ffffffffffffffffffffffffffffffffffffffff160217905550610724806100606000396000f300608060405260043610610057576000357c0100000000000000000000000000000000000000000000000000000000900463ffffffff168063257006421461005c5780638da5cb5b146101aa578063cc4c639414610201575b600080fd5b34801561006857600080fd5b506100c3600480360381019080803590602001908201803590602001908080601f01602080910402602001604051908101604052809392919081815260200183838082843782019150505050505091929192905050506102f6565b604051808060200180602001838103835285818151815260200191508051906020019080838360005b838110156101075780820151818401526020810190506100ec565b50505050905090810190601f1680156101345780820380516001836020036101000a031916815260200191505b50838103825284818151815260200191508051906020019080838360005b8381101561016d578082015181840152602081019050610152565b50505050905090810190601f16801561019a5780820380516001836020036101000a031916815260200191505b5094505050505060405180910390f35b3480156101b657600080fd5b506101bf610516565b604051808273ffffffffffffffffffffffffffffffffffffffff1673ffffffffffffffffffffffffffffffffffffffff16815260200191505060405180910390f35b34801561020d57600080fd5b506102f4600480360381019080803590602001908201803590602001908080601f0160208091040260200160405190810160405280939291908181526020018383808284378201915050505050509192919290803590602001908201803590602001908080601f0160208091040260200160405190810160405280939291908181526020018383808284378201915050505050509192919290803590602001908201803590602001908080601f016020809104026020016040519081016040528093929190818152602001838380828437820191505050505050919291929050505061053b565b005b6060806001836040518082805190602001908083835b602083101515610331578051825260208201915060208101905060208303925061030c565b6001836020036101000a03801982511681845116808217855250505050505090500191505090815260200160405180910390206000016001846040518082805190602001908083835b60208310151561039f578051825260208201915060208101905060208303925061037a565b6001836020036101000a0380198251168184511680821785525050505050509050019150509081526020016040518091039020600101818054600181600116156101000203166002900480601f01602080910402602001604051908101604052809291908181526020018280546001816001161561010002031660029004801561046a5780601f1061043f5761010080835404028352916020019161046a565b820191906000526020600020905b81548152906001019060200180831161044d57829003601f168201915b50505050509150808054600181600116156101000203166002900480601f0160208091040260200160405190810160405280929190818152602001828054600181600116156101000203166002900480156105065780601f106104db57610100808354040283529160200191610506565b820191906000526020600020905b8154815290600101906020018083116104e957829003601f168201915b5050505050905091509150915091565b6000809054906101000a900473ffffffffffffffffffffffffffffffffffffffff1681565b6000809054906101000a900473ffffffffffffffffffffffffffffffffffffffff1673ffffffffffffffffffffffffffffffffffffffff163373ffffffffffffffffffffffffffffffffffffffff16141561064e576040805190810160405280838152602001828152506001846040518082805190602001908083835b6020831015156105dd57805182526020820191506020810190506020830392506105b8565b6001836020036101000a0380198251168184511680821785525050505050509050019150509081526020016040518091039020600082015181600001908051906020019061062c929190610653565b506020820151816001019080519060200190610649929190610653565b509050505b505050565b828054600181600116156101000203166002900490600052602060002090601f016020900481019282601f1061069457805160ff19168380011785556106c2565b828001600101855582156106c2579182015b828111156106c15782518255916020019190600101906106a6565b5b5090506106cf91906106d3565b5090565b6106f591905b808211156106f15760008160009055506001016106d9565b5090565b905600a165627a7a72305820394bb79cee3049a8aa252d7dd65ad4b129627722b4d92d15d6a9a71875464d860029",
  "source": "pragma solidity ^0.4.0;\r\n\r\ncontract Ownership {\r\n\taddress public owner;\r\n\tmapping (bytes => Tree) content;\r\n\r\n\tstruct Tree {\r\n\t\tbytes root;\r\n\t\tbytes signature;\r\n\t}\r\n\r\n\tconstructor() public {\r\n\t\towner = msg.sender;\r\n\t}\r\n \r\n \tmodifier restricted() {\r\n \t\tif (msg.sender == owner) _;\r\n \t}\r\n\r\n\tfunction publish(bytes identity, bytes root, bytes signature) public restricted {\r\n\t\tcontent[identity] = Tree(root, signature);\r\n\t}\r\n\r\n\tfunction getTree(bytes identity) public constant returns (bytes, bytes) {\r\n\t\treturn (content[identity].root, content[identity].signature);\r\n\t}\r\n}",
  "sourcePath": "C:\\Users\\Charles\\Desktop\\Development\\Ara\\ara-filesystem\\contracts\\Ownership.sol",
  "compiler": {
    "name": "solc",
    "version": "0.4.24+commit.e67f0147.Emscripten.clang"
  },
  "schemaVersion": "2.0.0",
  "updatedAt": "2018-06-19T17:29:04.070Z"
}