{
  "contractName": "Ownership",
  "abi": [
    {
      "constant": true,
      "inputs": [],
      "name": "owner",
      "outputs": [
        {
          "name": "",
          "type": "address"
        }
      ],
      "payable": false,
      "stateMutability": "view",
      "type": "function"
    },
    {
      "inputs": [],
      "payable": false,
      "stateMutability": "nonpayable",
      "type": "constructor"
    },
    {
      "anonymous": false,
      "inputs": [
        {
          "indexed": false,
          "name": "identity",
          "type": "string"
        }
      ],
      "name": "Published",
      "type": "event"
    },
    {
      "constant": false,
      "inputs": [
        {
          "name": "identity",
          "type": "string"
        },
        {
          "name": "root",
          "type": "bytes"
        },
        {
          "name": "signature",
          "type": "bytes"
        }
      ],
      "name": "publish",
      "outputs": [],
      "payable": false,
      "stateMutability": "nonpayable",
      "type": "function"
    },
    {
      "constant": true,
      "inputs": [
        {
          "name": "identity",
          "type": "string"
        }
      ],
      "name": "resolve",
      "outputs": [
        {
          "name": "root",
          "type": "bytes"
        },
        {
          "name": "signature",
          "type": "bytes"
        }
      ],
      "payable": false,
      "stateMutability": "view",
      "type": "function"
    },
    {
      "constant": true,
      "inputs": [
        {
          "name": "identity",
          "type": "string"
        }
      ],
      "name": "getRoot",
      "outputs": [
        {
          "name": "root",
          "type": "bytes"
        }
      ],
      "payable": false,
      "stateMutability": "view",
      "type": "function"
    }
  ],
  "bytecode": "0x608060405234801561001057600080fd5b50336000806101000a81548173ffffffffffffffffffffffffffffffffffffffff021916908373ffffffffffffffffffffffffffffffffffffffff1602179055506109bd806100606000396000f300608060405260043610610062576000357c0100000000000000000000000000000000000000000000000000000000900463ffffffff1680632221722414610067578063461a447814610149578063609732b0146102975780638da5cb5b1461038c575b600080fd5b34801561007357600080fd5b506100ce600480360381019080803590602001908201803590602001908080601f01602080910402602001604051908101604052809392919081815260200183838082843782019150505050505091929192905050506103e3565b6040518080602001828103825283818151815260200191508051906020019080838360005b8381101561010e5780820151818401526020810190506100f3565b50505050905090810190601f16801561013b5780820380516001836020036101000a031916815260200191505b509250505060405180910390f35b34801561015557600080fd5b506101b0600480360381019080803590602001908201803590602001908080601f01602080910402602001604051908101604052809392919081815260200183838082843782019150505050505091929192905050506104f3565b604051808060200180602001838103835285818151815260200191508051906020019080838360005b838110156101f45780820151818401526020810190506101d9565b50505050905090810190601f1680156102215780820380516001836020036101000a031916815260200191505b50838103825284818151815260200191508051906020019080838360005b8381101561025a57808201518184015260208101905061023f565b50505050905090810190601f1680156102875780820380516001836020036101000a031916815260200191505b5094505050505060405180910390f35b3480156102a357600080fd5b5061038a600480360381019080803590602001908201803590602001908080601f0160208091040260200160405190810160405280939291908181526020018383808284378201915050505050509192919290803590602001908201803590602001908080601f0160208091040260200160405190810160405280939291908181526020018383808284378201915050505050509192919290803590602001908201803590602001908080601f0160208091040260200160405190810160405280939291908181526020018383808284378201915050505050509192919290505050610713565b005b34801561039857600080fd5b506103a16108c7565b604051808273ffffffffffffffffffffffffffffffffffffffff1673ffffffffffffffffffffffffffffffffffffffff16815260200191505060405180910390f35b60606001826040518082805190602001908083835b60208310151561041d57805182526020820191506020810190506020830392506103f8565b6001836020036101000a03801982511681845116808217855250505050505090500191505090815260200160405180910390206000018054600181600116156101000203166002900480601f0160208091040260200160405190810160405280929190818152602001828054600181600116156101000203166002900480156104e75780601f106104bc576101008083540402835291602001916104e7565b820191906000526020600020905b8154815290600101906020018083116104ca57829003601f168201915b50505050509050919050565b6060806001836040518082805190602001908083835b60208310151561052e5780518252602082019150602081019050602083039250610509565b6001836020036101000a03801982511681845116808217855250505050505090500191505090815260200160405180910390206000016001846040518082805190602001908083835b60208310151561059c5780518252602082019150602081019050602083039250610577565b6001836020036101000a0380198251168184511680821785525050505050509050019150509081526020016040518091039020600101818054600181600116156101000203166002900480601f0160208091040260200160405190810160405280929190818152602001828054600181600116156101000203166002900480156106675780601f1061063c57610100808354040283529160200191610667565b820191906000526020600020905b81548152906001019060200180831161064a57829003601f168201915b50505050509150808054600181600116156101000203166002900480601f0160208091040260200160405190810160405280929190818152602001828054600181600116156101000203166002900480156107035780601f106106d857610100808354040283529160200191610703565b820191906000526020600020905b8154815290600101906020018083116106e657829003601f168201915b5050505050905091509150915091565b6000809054906101000a900473ffffffffffffffffffffffffffffffffffffffff1673ffffffffffffffffffffffffffffffffffffffff163373ffffffffffffffffffffffffffffffffffffffff1614156108c2576040805190810160405280838152602001828152506001846040518082805190602001908083835b6020831015156107b55780518252602082019150602081019050602083039250610790565b6001836020036101000a038019825116818451168082178552505050505050905001915050908152602001604051809103902060008201518160000190805190602001906108049291906108ec565b5060208201518160010190805190602001906108219291906108ec565b509050507f3d70eae532f80096b8bc3dbc7475efda7acecdff2a5fc4a0733b7e27eebd5283836040518080602001828103825283818151815260200191508051906020019080838360005b8381101561088757808201518184015260208101905061086c565b50505050905090810190601f1680156108b45780820380516001836020036101000a031916815260200191505b509250505060405180910390a15b505050565b6000809054906101000a900473ffffffffffffffffffffffffffffffffffffffff1681565b828054600181600116156101000203166002900490600052602060002090601f016020900481019282601f1061092d57805160ff191683800117855561095b565b8280016001018555821561095b579182015b8281111561095a57825182559160200191906001019061093f565b5b509050610968919061096c565b5090565b61098e91905b8082111561098a576000816000905550600101610972565b5090565b905600a165627a7a723058202054d005e7c28b7c47a0d992275138df31b0b3effe501576e50f00c3774d2d690029",
  "source": "pragma solidity ^0.4.24;\n\ncontract Ownership {\n\taddress public owner;\n\tmapping (string => Tree) content;\n\n\tevent Published(string identity);\n\n\tstruct Tree {\n\t\tbytes root;\n\t\tbytes signature;\n\t}\n\n\tconstructor() public {\n\t\towner = msg.sender;\n\t}\n \n \tmodifier restricted() {\n \t\tif (msg.sender == owner) _;\n \t}\n\n\tfunction publish(string identity, bytes root, bytes signature) public restricted {\n\t\tcontent[identity] = Tree(root, signature);\n\t\temit Published(identity);\n\t}\n\n\tfunction resolve(string identity) public view returns (bytes root, bytes signature) {\n\t\treturn (content[identity].root, content[identity].signature);\n\t}\n\n\tfunction getRoot(string identity) public view returns (bytes root) {\n\t\treturn content[identity].root;\n\t}\n}\n",
  "sourcePath": "/Users/charles/Desktop/Development/Ara/ara-filesystem/contracts/Ownership.sol",
  "compiler": {
    "name": "solc",
    "version": "0.4.24+commit.e67f0147.Emscripten.clang"
  },
  "schemaVersion": "2.0.0",
  "updatedAt": "2018-06-20T20:11:08.482Z"
}