{
  "contractName": "Ownership",
  "abi": [
    {
      "constant": true,
      "inputs": [],
      "name": "owner",
      "outputs": [
        {
          "name": "",
          "type": "address"
        }
      ],
      "payable": false,
      "stateMutability": "view",
      "type": "function"
    },
    {
      "inputs": [],
      "payable": false,
      "stateMutability": "nonpayable",
      "type": "constructor"
    },
    {
      "anonymous": false,
      "inputs": [
        {
          "indexed": false,
          "name": "_identity",
          "type": "string"
        }
      ],
      "name": "Published",
      "type": "event"
    },
    {
      "constant": false,
      "inputs": [
        {
          "name": "identity",
          "type": "string"
        },
        {
          "name": "root",
          "type": "bytes"
        },
        {
          "name": "signature",
          "type": "bytes"
        }
      ],
      "name": "publish",
      "outputs": [],
      "payable": false,
      "stateMutability": "nonpayable",
      "type": "function"
    },
    {
      "constant": true,
      "inputs": [
        {
          "name": "identity",
          "type": "string"
        }
      ],
      "name": "resolve",
      "outputs": [
        {
          "name": "root",
          "type": "bytes"
        },
        {
          "name": "signature",
          "type": "bytes"
        }
      ],
      "payable": false,
      "stateMutability": "view",
      "type": "function"
    }
  ],
  "bytecode": "0x608060405234801561001057600080fd5b50336000806101000a81548173ffffffffffffffffffffffffffffffffffffffff021916908373ffffffffffffffffffffffffffffffffffffffff1602179055506107c0806100606000396000f300608060405260043610610057576000357c0100000000000000000000000000000000000000000000000000000000900463ffffffff168063461a44781461005c578063609732b0146101aa5780638da5cb5b1461029f575b600080fd5b34801561006857600080fd5b506100c3600480360381019080803590602001908201803590602001908080601f01602080910402602001604051908101604052809392919081815260200183838082843782019150505050505091929192905050506102f6565b604051808060200180602001838103835285818151815260200191508051906020019080838360005b838110156101075780820151818401526020810190506100ec565b50505050905090810190601f1680156101345780820380516001836020036101000a031916815260200191505b50838103825284818151815260200191508051906020019080838360005b8381101561016d578082015181840152602081019050610152565b50505050905090810190601f16801561019a5780820380516001836020036101000a031916815260200191505b5094505050505060405180910390f35b3480156101b657600080fd5b5061029d600480360381019080803590602001908201803590602001908080601f0160208091040260200160405190810160405280939291908181526020018383808284378201915050505050509192919290803590602001908201803590602001908080601f0160208091040260200160405190810160405280939291908181526020018383808284378201915050505050509192919290803590602001908201803590602001908080601f0160208091040260200160405190810160405280939291908181526020018383808284378201915050505050509192919290505050610516565b005b3480156102ab57600080fd5b506102b46106ca565b604051808273ffffffffffffffffffffffffffffffffffffffff1673ffffffffffffffffffffffffffffffffffffffff16815260200191505060405180910390f35b6060806001836040518082805190602001908083835b602083101515610331578051825260208201915060208101905060208303925061030c565b6001836020036101000a03801982511681845116808217855250505050505090500191505090815260200160405180910390206000016001846040518082805190602001908083835b60208310151561039f578051825260208201915060208101905060208303925061037a565b6001836020036101000a0380198251168184511680821785525050505050509050019150509081526020016040518091039020600101818054600181600116156101000203166002900480601f01602080910402602001604051908101604052809291908181526020018280546001816001161561010002031660029004801561046a5780601f1061043f5761010080835404028352916020019161046a565b820191906000526020600020905b81548152906001019060200180831161044d57829003601f168201915b50505050509150808054600181600116156101000203166002900480601f0160208091040260200160405190810160405280929190818152602001828054600181600116156101000203166002900480156105065780601f106104db57610100808354040283529160200191610506565b820191906000526020600020905b8154815290600101906020018083116104e957829003601f168201915b5050505050905091509150915091565b6000809054906101000a900473ffffffffffffffffffffffffffffffffffffffff1673ffffffffffffffffffffffffffffffffffffffff163373ffffffffffffffffffffffffffffffffffffffff1614156106c5576040805190810160405280838152602001828152506001846040518082805190602001908083835b6020831015156105b85780518252602082019150602081019050602083039250610593565b6001836020036101000a038019825116818451168082178552505050505050905001915050908152602001604051809103902060008201518160000190805190602001906106079291906106ef565b5060208201518160010190805190602001906106249291906106ef565b509050507f3d70eae532f80096b8bc3dbc7475efda7acecdff2a5fc4a0733b7e27eebd5283836040518080602001828103825283818151815260200191508051906020019080838360005b8381101561068a57808201518184015260208101905061066f565b50505050905090810190601f1680156106b75780820380516001836020036101000a031916815260200191505b509250505060405180910390a15b505050565b6000809054906101000a900473ffffffffffffffffffffffffffffffffffffffff1681565b828054600181600116156101000203166002900490600052602060002090601f016020900481019282601f1061073057805160ff191683800117855561075e565b8280016001018555821561075e579182015b8281111561075d578251825591602001919060010190610742565b5b50905061076b919061076f565b5090565b61079191905b8082111561078d576000816000905550600101610775565b5090565b905600a165627a7a7230582026305cb18af40a505bb1c612bc75af5a50db90e9ea12d17783882914ce1e755a0029",
  "source": "pragma solidity ^0.4.24;\n\ncontract Ownership {\n  address public owner;\n  mapping (string => Tree) content;\n\n  event Published(string _identity);\n\n  struct Tree {\n    bytes root;\n    bytes signature;\n  }\n\n  constructor() public {\n    owner = msg.sender;\n  }\n \n  modifier restricted() {\n    if (msg.sender == owner) _;\n  }\n\n  function publish(string identity, bytes root, bytes signature) public restricted {\n    content[identity] = Tree(root, signature);\n    emit Published(identity);\n  }\n\n  function resolve(string identity) public view returns (bytes root, bytes signature) {\n    return (content[identity].root, content[identity].signature);\n  }\n}\n",
  "sourcePath": "/Users/charles/Desktop/Development/Ara/ara-filesystem/contracts/Ownership.sol",
  "compiler": {
    "name": "solc",
    "version": "0.4.24+commit.e67f0147.Emscripten.clang"
  },
  "schemaVersion": "2.0.0",
  "updatedAt": "2018-06-20T20:53:19.985Z"
}