{
  "contractName": "Storage",
  "abi": [
    {
      "constant": true,
      "inputs": [],
      "name": "owner",
      "outputs": [
        {
          "name": "",
          "type": "address"
        }
      ],
      "payable": false,
      "stateMutability": "view",
      "type": "function"
    },
    {
      "inputs": [],
      "payable": false,
      "stateMutability": "nonpayable",
      "type": "constructor"
    },
    {
      "anonymous": false,
      "inputs": [
        {
          "indexed": false,
          "name": "_identity",
          "type": "string"
        }
      ],
      "name": "Commit",
      "type": "event"
    },
    {
      "anonymous": false,
      "inputs": [
        {
          "indexed": false,
          "name": "_identity",
          "type": "string"
        }
      ],
      "name": "Delete",
      "type": "event"
    },
    {
      "constant": false,
      "inputs": [
        {
          "name": "identity",
          "type": "string"
        },
        {
          "name": "file",
          "type": "uint8"
        },
        {
          "name": "offset",
          "type": "uint8"
        },
        {
          "name": "buffer",
          "type": "bytes"
        },
        {
          "name": "last_write",
          "type": "bool"
        }
      ],
      "name": "write",
      "outputs": [],
      "payable": false,
      "stateMutability": "nonpayable",
      "type": "function"
    },
    {
      "constant": true,
      "inputs": [
        {
          "name": "identity",
          "type": "string"
        },
        {
          "name": "file",
          "type": "uint8"
        },
        {
          "name": "offset",
          "type": "uint8"
        }
      ],
      "name": "read",
      "outputs": [
        {
          "name": "buffer",
          "type": "bytes"
        }
      ],
      "payable": false,
      "stateMutability": "view",
      "type": "function"
    },
    {
      "constant": true,
      "inputs": [
        {
          "name": "identity",
          "type": "string"
        },
        {
          "name": "file",
          "type": "uint8"
        }
      ],
      "name": "stat",
      "outputs": [
        {
          "name": "length",
          "type": "uint256"
        }
      ],
      "payable": false,
      "stateMutability": "view",
      "type": "function"
    },
    {
      "constant": false,
      "inputs": [
        {
          "name": "identity",
          "type": "string"
        }
      ],
      "name": "del",
      "outputs": [],
      "payable": false,
      "stateMutability": "nonpayable",
      "type": "function"
    }
  ],
  "bytecode": "0x608060405234801561001057600080fd5b50336000806101000a81548173ffffffffffffffffffffffffffffffffffffffff021916908373ffffffffffffffffffffffffffffffffffffffff160217905550610e13806100606000396000f30060806040526004361061006d576000357c0100000000000000000000000000000000000000000000000000000000900463ffffffff1680630bca089a146100725780633c9765f4146100db5780638da5cb5b146101b0578063c70c07be14610207578063e233732c14610291575b600080fd5b34801561007e57600080fd5b506100d9600480360381019080803590602001908201803590602001908080601f016020809104026020016040519081016040528093929190818152602001838380828437820191505050505050919291929050505061038d565b005b3480156100e757600080fd5b506101ae600480360381019080803590602001908201803590602001908080601f0160208091040260200160405190810160405280939291908181526020018383808284378201915050505050509192919290803560ff169060200190929190803560ff169060200190929190803590602001908201803590602001908080601f01602080910402602001604051908101604052809392919081815260200183838082843782019150505050505091929192908035151590602001909291905050506106a5565b005b3480156101bc57600080fd5b506101c5610a23565b604051808273ffffffffffffffffffffffffffffffffffffffff1673ffffffffffffffffffffffffffffffffffffffff16815260200191505060405180910390f35b34801561021357600080fd5b5061027b600480360381019080803590602001908201803590602001908080601f0160208091040260200160405190810160405280939291908181526020018383808284378201915050505050509192919290803560ff169060200190929190505050610a48565b6040518082815260200191505060405180910390f35b34801561029d57600080fd5b50610312600480360381019080803590602001908201803590602001908080601f0160208091040260200160405190810160405280939291908181526020018383808284378201915050505050509192919290803560ff169060200190929190803560ff169060200190929190505050610b9c565b6040518080602001828103825283818151815260200191508051906020019080838360005b83811015610352578082015181840152602081019050610337565b50505050905090810190601f16801561037f5780820380516001836020036101000a031916815260200191505b509250505060405180910390f35b60008060008060009054906101000a900473ffffffffffffffffffffffffffffffffffffffff1673ffffffffffffffffffffffffffffffffffffffff163373ffffffffffffffffffffffffffffffffffffffff16141561069f57600092505b60038360ff161015610602576001846040518082805190602001908083835b602083101515610430578051825260208201915060208101905060208303925061040b565b6001836020036101000a038019825116818451168082178552505050505050905001915050908152602001604051809103902060008460ff1660ff1681526020019081526020016000206002019150600090505b8180549050811015610557576001846040518082805190602001908083835b6020831015156104c857805182526020820191506020810190506020830392506104a3565b6001836020036101000a038019825116818451168082178552505050505050905001915050908152602001604051809103902060008460ff1660ff1681526020019081526020016000206000016000838381548110151561052557fe5b90600052602060002001548152602001908152602001600020600061054a9190610cd9565b8080600101915050610484565b6001846040518082805190602001908083835b60208310151561058f578051825260208201915060208101905060208303925061056a565b6001836020036101000a038019825116818451168082178552505050505050905001915050908152602001604051809103902060008460ff1660ff168152602001908152602001600020600060018201600090556002820160006105f39190610d21565b505082806001019350506103ec565b7f4f10916eb5a9437862f847447afc03fb5e011fcb540737254cbfe0542e8e71d5846040518080602001828103825283818151815260200191508051906020019080838360005b83811015610664578082015181840152602081019050610649565b50505050905090810190601f1680156106915780820380516001836020036101000a031916815260200191505b509250505060405180910390a15b50505050565b6000809054906101000a900473ffffffffffffffffffffffffffffffffffffffff1673ffffffffffffffffffffffffffffffffffffffff163373ffffffffffffffffffffffffffffffffffffffff161415610a1c57816001866040518082805190602001908083835b602083101515610733578051825260208201915060208101905060208303925061070e565b6001836020036101000a038019825116818451168082178552505050505050905001915050908152602001604051809103902060008660ff1660ff16815260200190815260200160002060000160008560ff16815260200190815260200160002090805190602001906107a7929190610d42565b506001856040518082805190602001908083835b6020831015156107e057805182526020820191506020810190506020830392506107bb565b6001836020036101000a038019825116818451168082178552505050505050905001915050908152602001604051809103902060008560ff1660ff168152602001908152602001600020600201839080600181540180825580915050906001820390600052602060002001600090919260ff16909190915055506001856040518082805190602001908083835b602083101515610892578051825260208201915060208101905060208303925061086d565b6001836020036101000a038019825116818451168082178552505050505050905001915050908152602001604051809103902060008560ff1660ff168152602001908152602001600020600101548360ff161115610978578260ff166001866040518082805190602001908083835b6020831015156109265780518252602082019150602081019050602083039250610901565b6001836020036101000a038019825116818451168082178552505050505050905001915050908152602001604051809103902060008660ff1660ff168152602001908152602001600020600101819055505b8015610a1b577f81542de3da6f1f216fee8163fc0618913251c9f50b0a7385cad8a684d82cde5c856040518080602001828103825283818151815260200191508051906020019080838360005b838110156109e05780820151818401526020810190506109c5565b50505050905090810190601f168015610a0d5780820380516001836020036101000a031916815260200191505b509250505060405180910390a15b5b5050505050565b6000809054906101000a900473ffffffffffffffffffffffffffffffffffffffff1681565b6000806001846040518082805190602001908083835b602083101515610a835780518252602082019150602081019050602083039250610a5e565b6001836020036101000a038019825116818451168082178552505050505050905001915050908152602001604051809103902060008460ff1660ff1681526020019081526020016000206001015490506000811415610ae55760009150610b95565b6001846040518082805190602001908083835b602083101515610b1d5780518252602082019150602081019050602083039250610af8565b6001836020036101000a038019825116818451168082178552505050505050905001915050908152602001604051809103902060008460ff1660ff1681526020019081526020016000206000016000828152602001908152602001600020805460018160011615610100020316600290049050810191505b5092915050565b60606001846040518082805190602001908083835b602083101515610bd65780518252602082019150602081019050602083039250610bb1565b6001836020036101000a038019825116818451168082178552505050505050905001915050908152602001604051809103902060008460ff1660ff16815260200190815260200160002060000160008360ff1681526020019081526020016000208054600181600116156101000203166002900480601f016020809104026020016040519081016040528092919081815260200182805460018160011615610100020316600290048015610ccb5780601f10610ca057610100808354040283529160200191610ccb565b820191906000526020600020905b815481529060010190602001808311610cae57829003601f168201915b505050505090509392505050565b50805460018160011615610100020316600290046000825580601f10610cff5750610d1e565b601f016020900490600052602060002090810190610d1d9190610dc2565b5b50565b5080546000825590600052602060002090810190610d3f9190610dc2565b50565b828054600181600116156101000203166002900490600052602060002090601f016020900481019282601f10610d8357805160ff1916838001178555610db1565b82800160010185558215610db1579182015b82811115610db0578251825591602001919060010190610d95565b5b509050610dbe9190610dc2565b5090565b610de491905b80821115610de0576000816000905550600101610dc8565b5090565b905600a165627a7a723058209bed4f1fb5d70d3f534e3d7c9bd36ed5452875c68e71ec0ea5362b7a837f6abf0029",
  "source": "pragma solidity ^0.4.24;\n\ncontract Storage {\n\n  address public owner;\n\n  // 0 - content/tree file\n  // 1 - content/signatures file\n  // 2 - metadata/tree file\n  // 3 - metadata/signatures file\n  // DID => file index => offset => buffer\n  mapping (string => mapping(uint8 => Buffers)) buffer_mappings;\n\n  struct Buffers {\n    mapping (uint => bytes) buffers;\n    uint largest_key;\n    uint[] keys;\n  }\n\n  event Commit(string _identity);\n  event Delete(string _identity);\n\n  constructor() public {\n    owner = msg.sender;\n  }\n \n  modifier restricted() {\n    if (msg.sender == owner) _;\n  }\n\n  function write(string identity, uint8 file, uint8 offset, bytes buffer, bool last_write) public restricted {\n    buffer_mappings[identity][file].buffers[offset] = buffer;\n    buffer_mappings[identity][file].keys.push(offset);\n    if (offset > buffer_mappings[identity][file].largest_key) {\n      buffer_mappings[identity][file].largest_key = offset;\n    }\n    if (last_write) {\n      emit Commit(identity);\n    }\n  }\n\n  function read(string identity, uint8 file, uint8 offset) public view returns (bytes buffer) {\n    return buffer_mappings[identity][file].buffers[offset];\n  }\n\n  function stat(string identity, uint8 file) public view returns (uint length) {\n    uint largest_key = buffer_mappings[identity][file].largest_key;\n    if (largest_key == 0) {\n      return 0;\n    } else {\n      return largest_key + buffer_mappings[identity][file].buffers[largest_key].length;\n    }\n  }\n\n  function del(string identity) public restricted {\n    for (uint8 i = 0; i < 3; i++) {\n      uint[] storage keys = buffer_mappings[identity][i].keys;\n      for (uint j = 0; j < keys.length; j++) {\n        delete buffer_mappings[identity][i].buffers[keys[j]];\n      }\n      delete buffer_mappings[identity][i];\n    }\n    emit Delete(identity);\n  }\n}\n",
  "sourcePath": "/Users/charles/Desktop/Development/Ara/ara-filesystem/contracts/Storage.sol",
  "compiler": {
    "name": "solc",
    "version": "0.4.24+commit.e67f0147.Emscripten.clang"
  },
  "schemaVersion": "2.0.0",
  "updatedAt": "2018-07-03T21:53:40.951Z"
}