{
  "contractName": "Storage",
  "abi": [
    {
      "constant": true,
      "inputs": [],
      "name": "owner",
      "outputs": [
        {
          "name": "",
          "type": "address"
        }
      ],
      "payable": false,
      "stateMutability": "view",
      "type": "function"
    },
    {
      "inputs": [],
      "payable": false,
      "stateMutability": "nonpayable",
      "type": "constructor"
    },
    {
      "anonymous": false,
      "inputs": [
        {
          "indexed": false,
          "name": "_identity",
          "type": "string"
        }
      ],
      "name": "Write",
      "type": "event"
    },
    {
      "anonymous": false,
      "inputs": [
        {
          "indexed": false,
          "name": "_identity",
          "type": "string"
        }
      ],
      "name": "Delete",
      "type": "event"
    },
    {
      "constant": false,
      "inputs": [
        {
          "name": "identity",
          "type": "string"
        },
        {
          "name": "file",
          "type": "uint8"
        },
        {
          "name": "offset",
          "type": "uint8"
        },
        {
          "name": "buffer",
          "type": "bytes"
        }
      ],
      "name": "write",
      "outputs": [],
      "payable": false,
      "stateMutability": "nonpayable",
      "type": "function"
    },
    {
      "constant": true,
      "inputs": [],
      "name": "test",
      "outputs": [
        {
          "name": "test",
          "type": "uint256"
        }
      ],
      "payable": false,
      "stateMutability": "view",
      "type": "function"
    },
    {
      "constant": true,
      "inputs": [
        {
          "name": "identity",
          "type": "string"
        },
        {
          "name": "file",
          "type": "uint8"
        },
        {
          "name": "offset",
          "type": "uint8"
        }
      ],
      "name": "read",
      "outputs": [
        {
          "name": "buffer",
          "type": "bytes"
        }
      ],
      "payable": false,
      "stateMutability": "view",
      "type": "function"
    },
    {
      "constant": true,
      "inputs": [
        {
          "name": "identity",
          "type": "string"
        },
        {
          "name": "file",
          "type": "uint8"
        }
      ],
      "name": "stat",
      "outputs": [
        {
          "name": "length",
          "type": "uint256"
        }
      ],
      "payable": false,
      "stateMutability": "view",
      "type": "function"
    },
    {
      "constant": false,
      "inputs": [
        {
          "name": "identity",
          "type": "string"
        }
      ],
      "name": "del",
      "outputs": [],
      "payable": false,
      "stateMutability": "nonpayable",
      "type": "function"
    }
  ],
  "bytecode": "0x608060405234801561001057600080fd5b50336000806101000a81548173ffffffffffffffffffffffffffffffffffffffff021916908373ffffffffffffffffffffffffffffffffffffffff160217905550610e3f806100606000396000f300608060405260043610610078576000357c0100000000000000000000000000000000000000000000000000000000900463ffffffff1680630bca089a1461007d5780638da5cb5b146100e6578063b2b956a91461013d578063c70c07be14610206578063e233732c14610290578063f8a8fd6d1461038c575b600080fd5b34801561008957600080fd5b506100e4600480360381019080803590602001908201803590602001908080601f01602080910402602001604051908101604052809392919081815260200183838082843782019150505050505091929192905050506103b7565b005b3480156100f257600080fd5b506100fb6106cf565b604051808273ffffffffffffffffffffffffffffffffffffffff1673ffffffffffffffffffffffffffffffffffffffff16815260200191505060405180910390f35b34801561014957600080fd5b50610204600480360381019080803590602001908201803590602001908080601f0160208091040260200160405190810160405280939291908181526020018383808284378201915050505050509192919290803560ff169060200190929190803560ff169060200190929190803590602001908201803590602001908080601f01602080910402602001604051908101604052809392919081815260200183838082843782019150505050505091929192905050506106f4565b005b34801561021257600080fd5b5061027a600480360381019080803590602001908201803590602001908080601f0160208091040260200160405190810160405280939291908181526020018383808284378201915050505050509192919290803560ff169060200190929190505050610a6a565b6040518082815260200191505060405180910390f35b34801561029c57600080fd5b50610311600480360381019080803590602001908201803590602001908080601f0160208091040260200160405190810160405280939291908181526020018383808284378201915050505050509192919290803560ff169060200190929190803560ff169060200190929190505050610bbe565b6040518080602001828103825283818151815260200191508051906020019080838360005b83811015610351578082015181840152602081019050610336565b50505050905090810190601f16801561037e5780820380516001836020036101000a031916815260200191505b509250505060405180910390f35b34801561039857600080fd5b506103a1610cfb565b6040518082815260200191505060405180910390f35b60008060008060009054906101000a900473ffffffffffffffffffffffffffffffffffffffff1673ffffffffffffffffffffffffffffffffffffffff163373ffffffffffffffffffffffffffffffffffffffff1614156106c957600092505b60038360ff16101561062c576001846040518082805190602001908083835b60208310151561045a5780518252602082019150602081019050602083039250610435565b6001836020036101000a038019825116818451168082178552505050505050905001915050908152602001604051809103902060008460ff1660ff1681526020019081526020016000206002019150600090505b8180549050811015610581576001846040518082805190602001908083835b6020831015156104f257805182526020820191506020810190506020830392506104cd565b6001836020036101000a038019825116818451168082178552505050505050905001915050908152602001604051809103902060008460ff1660ff1681526020019081526020016000206000016000838381548110151561054f57fe5b9060005260206000200154815260200190815260200160002060006105749190610d05565b80806001019150506104ae565b6001846040518082805190602001908083835b6020831015156105b95780518252602082019150602081019050602083039250610594565b6001836020036101000a038019825116818451168082178552505050505050905001915050908152602001604051809103902060008460ff1660ff1681526020019081526020016000206000600182016000905560028201600061061d9190610d4d565b50508280600101935050610416565b7f4f10916eb5a9437862f847447afc03fb5e011fcb540737254cbfe0542e8e71d5846040518080602001828103825283818151815260200191508051906020019080838360005b8381101561068e578082015181840152602081019050610673565b50505050905090810190601f1680156106bb5780820380516001836020036101000a031916815260200191505b509250505060405180910390a15b50505050565b6000809054906101000a900473ffffffffffffffffffffffffffffffffffffffff1681565b6000809054906101000a900473ffffffffffffffffffffffffffffffffffffffff1673ffffffffffffffffffffffffffffffffffffffff163373ffffffffffffffffffffffffffffffffffffffff161415610a6457806001856040518082805190602001908083835b602083101515610782578051825260208201915060208101905060208303925061075d565b6001836020036101000a038019825116818451168082178552505050505050905001915050908152602001604051809103902060008560ff1660ff16815260200190815260200160002060000160008460ff16815260200190815260200160002090805190602001906107f6929190610d6e565b506001846040518082805190602001908083835b60208310151561082f578051825260208201915060208101905060208303925061080a565b6001836020036101000a038019825116818451168082178552505050505050905001915050908152602001604051809103902060008460ff1660ff168152602001908152602001600020600201829080600181540180825580915050906001820390600052602060002001600090919260ff16909190915055506001846040518082805190602001908083835b6020831015156108e157805182526020820191506020810190506020830392506108bc565b6001836020036101000a038019825116818451168082178552505050505050905001915050908152602001604051809103902060008460ff1660ff168152602001908152602001600020600101548260ff1611156109c7578160ff166001856040518082805190602001908083835b6020831015156109755780518252602082019150602081019050602083039250610950565b6001836020036101000a038019825116818451168082178552505050505050905001915050908152602001604051809103902060008560ff1660ff168152602001908152602001600020600101819055505b7f5993e6471a445df9fb9984c5b3f886881232329f7c7fd97042cf78b348fd2530846040518080602001828103825283818151815260200191508051906020019080838360005b83811015610a29578082015181840152602081019050610a0e565b50505050905090810190601f168015610a565780820380516001836020036101000a031916815260200191505b509250505060405180910390a15b50505050565b6000806001846040518082805190602001908083835b602083101515610aa55780518252602082019150602081019050602083039250610a80565b6001836020036101000a038019825116818451168082178552505050505050905001915050908152602001604051809103902060008460ff1660ff1681526020019081526020016000206001015490506000811415610b075760009150610bb7565b6001846040518082805190602001908083835b602083101515610b3f5780518252602082019150602081019050602083039250610b1a565b6001836020036101000a038019825116818451168082178552505050505050905001915050908152602001604051809103902060008460ff1660ff1681526020019081526020016000206000016000828152602001908152602001600020805460018160011615610100020316600290049050810191505b5092915050565b60606001846040518082805190602001908083835b602083101515610bf85780518252602082019150602081019050602083039250610bd3565b6001836020036101000a038019825116818451168082178552505050505050905001915050908152602001604051809103902060008460ff1660ff16815260200190815260200160002060000160008360ff1681526020019081526020016000208054600181600116156101000203166002900480601f016020809104026020016040519081016040528092919081815260200182805460018160011615610100020316600290048015610ced5780601f10610cc257610100808354040283529160200191610ced565b820191906000526020600020905b815481529060010190602001808311610cd057829003601f168201915b505050505090509392505050565b600061029a905090565b50805460018160011615610100020316600290046000825580601f10610d2b5750610d4a565b601f016020900490600052602060002090810190610d499190610dee565b5b50565b5080546000825590600052602060002090810190610d6b9190610dee565b50565b828054600181600116156101000203166002900490600052602060002090601f016020900481019282601f10610daf57805160ff1916838001178555610ddd565b82800160010185558215610ddd579182015b82811115610ddc578251825591602001919060010190610dc1565b5b509050610dea9190610dee565b5090565b610e1091905b80821115610e0c576000816000905550600101610df4565b5090565b905600a165627a7a72305820ef23531779067bef27c688196e3cf01085e4c8001cceb89c09a5b2ca1ee4b1260029",
  "source": "pragma solidity ^0.4.24;\n\ncontract Storage {\n\n  address public owner;\n\n  // 0 - content/tree file\n  // 1 - content/signatures file\n  // 2 - metadata/tree file\n  // 3 - metadata/signatures file\n  // DID => file index => offset => buffer\n  mapping (string => mapping(uint8 => Buffers)) buffer_mappings;\n\n  struct Buffers {\n    mapping (uint => bytes) buffers;\n    uint largest_key;\n    uint[] keys;\n  }\n\n  event Write(string _identity);\n  event Delete(string _identity);\n\n  constructor() public {\n    owner = msg.sender;\n  }\n \n  modifier restricted() {\n    if (msg.sender == owner) _;\n  }\n\n  function write(string identity, uint8 file, uint8 offset, bytes buffer) public restricted {\n    buffer_mappings[identity][file].buffers[offset] = buffer;\n    buffer_mappings[identity][file].keys.push(offset);\n    if (offset > buffer_mappings[identity][file].largest_key) {\n      buffer_mappings[identity][file].largest_key = offset;\n    }\n    emit Write(identity);\n  }\n\n  function test() public view returns (uint test) {\n    return 666;\n  }\n\n  function read(string identity, uint8 file, uint8 offset) public view returns (bytes buffer) {\n    return buffer_mappings[identity][file].buffers[offset];\n  }\n\n  function stat(string identity, uint8 file) public view returns (uint length) {\n    uint largest_key = buffer_mappings[identity][file].largest_key;\n    if (largest_key == 0) {\n      return 0;\n    } else {\n      return largest_key + buffer_mappings[identity][file].buffers[largest_key].length;\n    }\n  }\n\n  function del(string identity) public restricted {\n    for (uint8 i = 0; i < 3; i++) {\n      uint[] storage keys = buffer_mappings[identity][i].keys;\n      for (uint j = 0; j < keys.length; j++) {\n        delete buffer_mappings[identity][i].buffers[keys[j]];\n      }\n      delete buffer_mappings[identity][i];\n    }\n    emit Delete(identity);\n  }\n}\n",
  "sourcePath": "/Users/charles/Desktop/Development/Ara/ara-filesystem/contracts/Storage.sol",
  "compiler": {
    "name": "solc",
    "version": "0.4.24+commit.e67f0147.Emscripten.clang"
  },
  "schemaVersion": "2.0.0",
  "updatedAt": "2018-07-03T14:43:42.036Z"
}