{
  "contractName": "Storage",
  "abi": [
    {
      "constant": true,
      "inputs": [],
      "name": "owner",
      "outputs": [
        {
          "name": "",
          "type": "address"
        }
      ],
      "payable": false,
      "stateMutability": "view",
      "type": "function"
    },
    {
      "inputs": [],
      "payable": false,
      "stateMutability": "nonpayable",
      "type": "constructor"
    },
    {
      "anonymous": false,
      "inputs": [
        {
          "indexed": false,
          "name": "_identity",
          "type": "string"
        }
      ],
      "name": "Write",
      "type": "event"
    },
    {
      "anonymous": false,
      "inputs": [
        {
          "indexed": false,
          "name": "_identity",
          "type": "string"
        },
        {
          "indexed": false,
          "name": "_file",
          "type": "uint8"
        }
      ],
      "name": "Write",
      "type": "event"
    },
    {
      "anonymous": false,
      "inputs": [
        {
          "indexed": false,
          "name": "_identity",
          "type": "string"
        }
      ],
      "name": "Unlink",
      "type": "event"
    },
    {
      "constant": false,
      "inputs": [
        {
          "name": "identity",
          "type": "string"
        },
        {
          "name": "ctBuffer",
          "type": "bytes"
        },
        {
          "name": "csBuffer",
          "type": "bytes"
        },
        {
          "name": "mtBuffer",
          "type": "bytes"
        },
        {
          "name": "msBuffer",
          "type": "bytes"
        }
      ],
      "name": "write",
      "outputs": [],
      "payable": false,
      "stateMutability": "nonpayable",
      "type": "function"
    },
    {
      "constant": false,
      "inputs": [
        {
          "name": "identity",
          "type": "string"
        },
        {
          "name": "file",
          "type": "uint8"
        },
        {
          "name": "buffer",
          "type": "bytes"
        }
      ],
      "name": "write",
      "outputs": [],
      "payable": false,
      "stateMutability": "nonpayable",
      "type": "function"
    },
    {
      "constant": true,
      "inputs": [
        {
          "name": "identity",
          "type": "string"
        },
        {
          "name": "file",
          "type": "uint8"
        }
      ],
      "name": "read",
      "outputs": [
        {
          "name": "buffer",
          "type": "bytes"
        }
      ],
      "payable": false,
      "stateMutability": "view",
      "type": "function"
    },
    {
      "constant": true,
      "inputs": [
        {
          "name": "identity",
          "type": "string"
        }
      ],
      "name": "read",
      "outputs": [
        {
          "name": "ctBuffer",
          "type": "bytes"
        },
        {
          "name": "csBuffer",
          "type": "bytes"
        },
        {
          "name": "mtBuffer",
          "type": "bytes"
        },
        {
          "name": "msBuffer",
          "type": "bytes"
        }
      ],
      "payable": false,
      "stateMutability": "view",
      "type": "function"
    },
    {
      "constant": false,
      "inputs": [
        {
          "name": "identity",
          "type": "string"
        }
      ],
      "name": "unlink",
      "outputs": [],
      "payable": false,
      "stateMutability": "nonpayable",
      "type": "function"
    }
  ],
  "bytecode": "0x608060405234801561001057600080fd5b50336000806101000a81548173ffffffffffffffffffffffffffffffffffffffff021916908373ffffffffffffffffffffffffffffffffffffffff160217905550611402806100606000396000f300608060405260043610610078576000357c0100000000000000000000000000000000000000000000000000000000900463ffffffff1680635ded19061461007d578063616ffe831461016c5780636fee1596146103925780638da5cb5b146103fb578063eaabb06c14610452578063f9d9a85c146105d3575b600080fd5b34801561008957600080fd5b506100f1600480360381019080803590602001908201803590602001908080601f0160208091040260200160405190810160405280939291908181526020018383808284378201915050505050509192919290803560ff16906020019092919050505061068f565b6040518080602001828103825283818151815260200191508051906020019080838360005b83811015610131578082015181840152602081019050610116565b50505050905090810190601f16801561015e5780820380516001836020036101000a031916815260200191505b509250505060405180910390f35b34801561017857600080fd5b506101d3600480360381019080803590602001908201803590602001908080601f01602080910402602001604051908101604052809392919081815260200183838082843782019150505050505091929192905050506107b4565b6040518080602001806020018060200180602001858103855289818151815260200191508051906020019080838360005b8381101561021f578082015181840152602081019050610204565b50505050905090810190601f16801561024c5780820380516001836020036101000a031916815260200191505b50858103845288818151815260200191508051906020019080838360005b8381101561028557808201518184015260208101905061026a565b50505050905090810190601f1680156102b25780820380516001836020036101000a031916815260200191505b50858103835287818151815260200191508051906020019080838360005b838110156102eb5780820151818401526020810190506102d0565b50505050905090810190601f1680156103185780820380516001836020036101000a031916815260200191505b50858103825286818151815260200191508051906020019080838360005b83811015610351578082015181840152602081019050610336565b50505050905090810190601f16801561037e5780820380516001836020036101000a031916815260200191505b509850505050505050505060405180910390f35b34801561039e57600080fd5b506103f9600480360381019080803590602001908201803590602001908080601f0160208091040260200160405190810160405280939291908181526020018383808284378201915050505050509192919290505050610c38565b005b34801561040757600080fd5b50610410610ddc565b604051808273ffffffffffffffffffffffffffffffffffffffff1673ffffffffffffffffffffffffffffffffffffffff16815260200191505060405180910390f35b34801561045e57600080fd5b506105d1600480360381019080803590602001908201803590602001908080601f0160208091040260200160405190810160405280939291908181526020018383808284378201915050505050509192919290803590602001908201803590602001908080601f0160208091040260200160405190810160405280939291908181526020018383808284378201915050505050509192919290803590602001908201803590602001908080601f0160208091040260200160405190810160405280939291908181526020018383808284378201915050505050509192919290803590602001908201803590602001908080601f0160208091040260200160405190810160405280939291908181526020018383808284378201915050505050509192919290803590602001908201803590602001908080601f0160208091040260200160405190810160405280939291908181526020018383808284378201915050505050509192919290505050610e01565b005b3480156105df57600080fd5b5061068d600480360381019080803590602001908201803590602001908080601f0160208091040260200160405190810160405280939291908181526020018383808284378201915050505050509192919290803560ff169060200190929190803590602001908201803590602001908080601f016020809104026020016040519081016040528093929190818152602001838380828437820191505050505050919291929050505061114d565b005b60606001836040518082805190602001908083835b6020831015156106c957805182526020820191506020810190506020830392506106a4565b6001836020036101000a038019825116818451168082178552505050505050905001915050908152602001604051809103902060008360ff1660ff1681526020019081526020016000208054600181600116156101000203166002900480601f0160208091040260200160405190810160405280929190818152602001828054600181600116156101000203166002900480156107a75780601f1061077c576101008083540402835291602001916107a7565b820191906000526020600020905b81548152906001019060200180831161078a57829003601f168201915b5050505050905092915050565b6060806060806001856040518082805190602001908083835b6020831015156107f257805182526020820191506020810190506020830392506107cd565b6001836020036101000a038019825116818451168082178552505050505050905001915050908152602001604051809103902060008060ff1681526020019081526020016000208054600181600116156101000203166002900480601f0160208091040260200160405190810160405280929190818152602001828054600181600116156101000203166002900480156108cd5780601f106108a2576101008083540402835291602001916108cd565b820191906000526020600020905b8154815290600101906020018083116108b057829003601f168201915b505050505093506001856040518082805190602001908083835b60208310151561090c57805182526020820191506020810190506020830392506108e7565b6001836020036101000a03801982511681845116808217855250505050505090500191505090815260200160405180910390206000600160ff1681526020019081526020016000208054600181600116156101000203166002900480601f0160208091040260200160405190810160405280929190818152602001828054600181600116156101000203166002900480156109e85780601f106109bd576101008083540402835291602001916109e8565b820191906000526020600020905b8154815290600101906020018083116109cb57829003601f168201915b505050505092506001856040518082805190602001908083835b602083101515610a275780518252602082019150602081019050602083039250610a02565b6001836020036101000a03801982511681845116808217855250505050505090500191505090815260200160405180910390206000600260ff1681526020019081526020016000208054600181600116156101000203166002900480601f016020809104026020016040519081016040528092919081815260200182805460018160011615610100020316600290048015610b035780601f10610ad857610100808354040283529160200191610b03565b820191906000526020600020905b815481529060010190602001808311610ae657829003601f168201915b505050505091506001856040518082805190602001908083835b602083101515610b425780518252602082019150602081019050602083039250610b1d565b6001836020036101000a03801982511681845116808217855250505050505090500191505090815260200160405180910390206000600360ff1681526020019081526020016000208054600181600116156101000203166002900480601f016020809104026020016040519081016040528092919081815260200182805460018160011615610100020316600290048015610c1e5780601f10610bf357610100808354040283529160200191610c1e565b820191906000526020600020905b815481529060010190602001808311610c0157829003601f168201915b505050505090508283838393509350935093509193509193565b60008060009054906101000a900473ffffffffffffffffffffffffffffffffffffffff1673ffffffffffffffffffffffffffffffffffffffff163373ffffffffffffffffffffffffffffffffffffffff161415610dd857600090505b60048160ff161015610d3b576001826040518082805190602001908083835b602083101515610cd85780518252602082019150602081019050602083039250610cb3565b6001836020036101000a038019825116818451168082178552505050505050905001915050908152602001604051809103902060008260ff1660ff1681526020019081526020016000206000610d2e91906112e9565b8080600101915050610c94565b7faf9aa538f078d96b7b63fdb88bc25e0c3ee9d9fa6413a1b6c43189097e92abef826040518080602001828103825283818151815260200191508051906020019080838360005b83811015610d9d578082015181840152602081019050610d82565b50505050905090810190601f168015610dca5780820380516001836020036101000a031916815260200191505b509250505060405180910390a15b5050565b6000809054906101000a900473ffffffffffffffffffffffffffffffffffffffff1681565b6000809054906101000a900473ffffffffffffffffffffffffffffffffffffffff1673ffffffffffffffffffffffffffffffffffffffff163373ffffffffffffffffffffffffffffffffffffffff16141561114657836001866040518082805190602001908083835b602083101515610e8f5780518252602082019150602081019050602083039250610e6a565b6001836020036101000a038019825116818451168082178552505050505050905001915050908152602001604051809103902060008060ff1681526020019081526020016000209080519060200190610ee9929190611331565b50826001866040518082805190602001908083835b602083101515610f235780518252602082019150602081019050602083039250610efe565b6001836020036101000a03801982511681845116808217855250505050505090500191505090815260200160405180910390206000600160ff1681526020019081526020016000209080519060200190610f7e929190611331565b50816001866040518082805190602001908083835b602083101515610fb85780518252602082019150602081019050602083039250610f93565b6001836020036101000a03801982511681845116808217855250505050505090500191505090815260200160405180910390206000600260ff1681526020019081526020016000209080519060200190611013929190611331565b50806001866040518082805190602001908083835b60208310151561104d5780518252602082019150602081019050602083039250611028565b6001836020036101000a03801982511681845116808217855250505050505090500191505090815260200160405180910390206000600360ff16815260200190815260200160002090805190602001906110a8929190611331565b507f5993e6471a445df9fb9984c5b3f886881232329f7c7fd97042cf78b348fd2530856040518080602001828103825283818151815260200191508051906020019080838360005b8381101561110b5780820151818401526020810190506110f0565b50505050905090810190601f1680156111385780820380516001836020036101000a031916815260200191505b509250505060405180910390a15b5050505050565b6000809054906101000a900473ffffffffffffffffffffffffffffffffffffffff1673ffffffffffffffffffffffffffffffffffffffff163373ffffffffffffffffffffffffffffffffffffffff1614156112e457806001846040518082805190602001908083835b6020831015156111db57805182526020820191506020810190506020830392506111b6565b6001836020036101000a038019825116818451168082178552505050505050905001915050908152602001604051809103902060008460ff1660ff1681526020019081526020016000209080519060200190611238929190611331565b507fd5f827f54b17251b39eb831bb6e16da7da51802f701d156974b34f1ad1d35c4c838360405180806020018360ff1660ff168152602001828103825284818151815260200191508051906020019080838360005b838110156112a857808201518184015260208101905061128d565b50505050905090810190601f1680156112d55780820380516001836020036101000a031916815260200191505b50935050505060405180910390a15b505050565b50805460018160011615610100020316600290046000825580601f1061130f575061132e565b601f01602090049060005260206000209081019061132d91906113b1565b5b50565b828054600181600116156101000203166002900490600052602060002090601f016020900481019282601f1061137257805160ff19168380011785556113a0565b828001600101855582156113a0579182015b8281111561139f578251825591602001919060010190611384565b5b5090506113ad91906113b1565b5090565b6113d391905b808211156113cf5760008160009055506001016113b7565b5090565b905600a165627a7a723058202deb6b3a309245571bbb2d8a0cab0b389663598c7210814ef4b5018074c45da30029",
  "source": "pragma solidity ^0.4.24;\n\ncontract Storage {\n\n  address public owner;\n\n  // 0 - content/tree file\n  // 1 - content/signatures file\n  // 2 - metadata/tree file\n  // 3 - metadata/signatures file\n  mapping (string => mapping(uint8 => bytes)) buffer_mappings;\n\n  event Write(string _identity);\n  event Write(string _identity, uint8 _file);\n  event Unlink(string _identity);\n\n  constructor() public {\n    owner = msg.sender;\n  }\n \n  modifier restricted() {\n    if (msg.sender == owner) _;\n  }\n\n  function write(string identity, bytes ctBuffer, bytes csBuffer, \n    bytes mtBuffer, bytes msBuffer) public restricted {\n    buffer_mappings[identity][0] = ctBuffer;\n    buffer_mappings[identity][1] = csBuffer;\n    buffer_mappings[identity][2] = mtBuffer;\n    buffer_mappings[identity][3] = msBuffer;\n    emit Write(identity);\n  }\n\n  function write(string identity, uint8 file, bytes buffer) public restricted {\n    buffer_mappings[identity][file] = buffer;\n    emit Write(identity, file);\n  }\n\n  function read(string identity) public view returns (bytes ctBuffer, bytes csBuffer,\n    bytes mtBuffer, bytes msBuffer) {\n    ctBuffer = buffer_mappings[identity][0];\n    csBuffer = buffer_mappings[identity][1];\n    mtBuffer = buffer_mappings[identity][2];\n    msBuffer = buffer_mappings[identity][3];\n    return (csBuffer, csBuffer, mtBuffer, msBuffer);\n  }\n\n  function read(string identity, uint8 file) public view returns (bytes buffer) {\n    return buffer_mappings[identity][file];\n  }\n\n  function unlink(string identity) public restricted {\n    for (uint8 i = 0; i < 4; i++) {\n      delete buffer_mappings[identity][i];\n    }\n    emit Unlink(identity);\n  }\n}\n",
  "sourcePath": "/Users/charles/Desktop/Development/Ara/ara-filesystem/contracts/Storage.sol",
  "compiler": {
    "name": "solc",
    "version": "0.4.24+commit.e67f0147.Emscripten.clang"
  },
  "schemaVersion": "2.0.0",
  "updatedAt": "2018-06-21T21:10:50.579Z"
}