{
  "contractName": "Storage",
  "abi": [
    {
      "constant": true,
      "inputs": [],
      "name": "owner",
      "outputs": [
        {
          "name": "",
          "type": "address"
        }
      ],
      "payable": false,
      "stateMutability": "view",
      "type": "function"
    },
    {
      "inputs": [],
      "payable": false,
      "stateMutability": "nonpayable",
      "type": "constructor"
    },
    {
      "anonymous": false,
      "inputs": [
        {
          "indexed": false,
          "name": "_identity",
          "type": "string"
        }
      ],
      "name": "Write",
      "type": "event"
    },
    {
      "anonymous": false,
      "inputs": [
        {
          "indexed": false,
          "name": "_identity",
          "type": "string"
        },
        {
          "indexed": false,
          "name": "offset",
          "type": "uint256"
        }
      ],
      "name": "Read",
      "type": "event"
    },
    {
      "anonymous": false,
      "inputs": [
        {
          "indexed": false,
          "name": "_identity",
          "type": "string"
        }
      ],
      "name": "Delete",
      "type": "event"
    },
    {
      "constant": false,
      "inputs": [
        {
          "name": "identity",
          "type": "string"
        },
        {
          "name": "file",
          "type": "uint8"
        },
        {
          "name": "offset",
          "type": "uint256"
        },
        {
          "name": "buffer",
          "type": "bytes"
        }
      ],
      "name": "write",
      "outputs": [],
      "payable": false,
      "stateMutability": "nonpayable",
      "type": "function"
    },
    {
      "constant": true,
      "inputs": [
        {
          "name": "identity",
          "type": "string"
        },
        {
          "name": "file",
          "type": "uint8"
        },
        {
          "name": "offset",
          "type": "uint256"
        }
      ],
      "name": "read",
      "outputs": [
        {
          "name": "buffer",
          "type": "bytes"
        }
      ],
      "payable": false,
      "stateMutability": "view",
      "type": "function"
    },
    {
      "constant": true,
      "inputs": [
        {
          "name": "identity",
          "type": "string"
        },
        {
          "name": "file",
          "type": "uint8"
        }
      ],
      "name": "stat",
      "outputs": [
        {
          "name": "length",
          "type": "uint256"
        }
      ],
      "payable": false,
      "stateMutability": "view",
      "type": "function"
    },
    {
      "constant": false,
      "inputs": [
        {
          "name": "identity",
          "type": "string"
        }
      ],
      "name": "del",
      "outputs": [],
      "payable": false,
      "stateMutability": "nonpayable",
      "type": "function"
    }
  ],
  "bytecode": "0x608060405234801561001057600080fd5b50336000806101000a81548173ffffffffffffffffffffffffffffffffffffffff021916908373ffffffffffffffffffffffffffffffffffffffff160217905550610996806100606000396000f30060806040526004361061006d576000357c0100000000000000000000000000000000000000000000000000000000900463ffffffff1680630bca089a146100725780638da5cb5b146100db578063a3c144cf14610132578063c70c07be1461022b578063e56715ae146102b5575b600080fd5b34801561007e57600080fd5b506100d9600480360381019080803590602001908201803590602001908080601f016020809104026020016040519081016040528093929190818152602001838380828437820191505050505050919291929050505061037b565b005b3480156100e757600080fd5b506100f0610514565b604051808273ffffffffffffffffffffffffffffffffffffffff1673ffffffffffffffffffffffffffffffffffffffff16815260200191505060405180910390f35b34801561013e57600080fd5b506101b0600480360381019080803590602001908201803590602001908080601f0160208091040260200160405190810160405280939291908181526020018383808284378201915050505050509192919290803560ff16906020019092919080359060200190929190505050610539565b6040518080602001828103825283818151815260200191508051906020019080838360005b838110156101f05780820151818401526020810190506101d5565b50505050905090810190601f16801561021d5780820380516001836020036101000a031916815260200191505b509250505060405180910390f35b34801561023757600080fd5b5061029f600480360381019080803590602001908201803590602001908080601f0160208091040260200160405190810160405280939291908181526020018383808284378201915050505050509192919290803560ff169060200190929190505050610717565b6040518082815260200191505060405180910390f35b3480156102c157600080fd5b50610379600480360381019080803590602001908201803590602001908080601f0160208091040260200160405190810160405280939291908181526020018383808284378201915050505050509192919290803560ff16906020019092919080359060200190929190803590602001908201803590602001908080601f0160208091040260200160405190810160405280939291908181526020018383808284378201915050505050509192919290505050610722565b005b60008060009054906101000a900473ffffffffffffffffffffffffffffffffffffffff1673ffffffffffffffffffffffffffffffffffffffff163373ffffffffffffffffffffffffffffffffffffffff16141561051057600090505b60048160ff161015610473576001826040518082805190602001908083835b60208310151561041b57805182526020820191506020810190506020830392506103f6565b6001836020036101000a038019825116818451168082178552505050505050905001915050908152602001604051809103902060008260ff1660ff1681526020019081526020016000205080806001019150506103d7565b7f4f10916eb5a9437862f847447afc03fb5e011fcb540737254cbfe0542e8e71d5826040518080602001828103825283818151815260200191508051906020019080838360005b838110156104d55780820151818401526020810190506104ba565b50505050905090810190601f1680156105025780820380516001836020036101000a031916815260200191505b509250505060405180910390a15b5050565b6000809054906101000a900473ffffffffffffffffffffffffffffffffffffffff1681565b60607fd469133b635c84d3ace9b97aebfb7a1031ef2804e877a3ef5f889913768ea20e84836040518080602001838152602001828103825284818151815260200191508051906020019080838360005b838110156105a4578082015181840152602081019050610589565b50505050905090810190601f1680156105d15780820380516001836020036101000a031916815260200191505b50935050505060405180910390a16001846040518082805190602001908083835b60208310151561061757805182526020820191506020810190506020830392506105f2565b6001836020036101000a038019825116818451168082178552505050505050905001915050908152602001604051809103902060008460ff1660ff16815260200190815260200160002060000160008381526020019081526020016000208054600181600116156101000203166002900480601f0160208091040260200160405190810160405280929190818152602001828054600181600116156101000203166002900480156107095780601f106106de57610100808354040283529160200191610709565b820191906000526020600020905b8154815290600101906020018083116106ec57829003601f168201915b505050505090509392505050565b600080905092915050565b6000809054906101000a900473ffffffffffffffffffffffffffffffffffffffff1673ffffffffffffffffffffffffffffffffffffffff163373ffffffffffffffffffffffffffffffffffffffff1614156108bf57806001856040518082805190602001908083835b6020831015156107b0578051825260208201915060208101905060208303925061078b565b6001836020036101000a038019825116818451168082178552505050505050905001915050908152602001604051809103902060008560ff1660ff168152602001908152602001600020600001600084815260200190815260200160002090805190602001906108219291906108c5565b507f5993e6471a445df9fb9984c5b3f886881232329f7c7fd97042cf78b348fd2530846040518080602001828103825283818151815260200191508051906020019080838360005b83811015610884578082015181840152602081019050610869565b50505050905090810190601f1680156108b15780820380516001836020036101000a031916815260200191505b509250505060405180910390a15b50505050565b828054600181600116156101000203166002900490600052602060002090601f016020900481019282601f1061090657805160ff1916838001178555610934565b82800160010185558215610934579182015b82811115610933578251825591602001919060010190610918565b5b5090506109419190610945565b5090565b61096791905b8082111561096357600081600090555060010161094b565b5090565b905600a165627a7a72305820fd784b7b207a7502c75f4bc06dfe700c5b7e22043ac0f832e1cdbba6216cef8d0029",
  "source": "pragma solidity ^0.4.24;\n\ncontract Storage {\n\n  address public owner;\n\n  // 0 - content/tree file\n  // 1 - content/signatures file\n  // 2 - metadata/tree file\n  // 3 - metadata/signatures file\n  mapping (string => mapping(uint8 => Buffers)) buffer_mappings;\n\n  struct Buffers {\n    mapping (uint => bytes) buffers;\n  }\n\n  event Write(string _identity);\n  event Read(string _identity, uint offset);\n  event Delete(string _identity);\n\n  constructor() public {\n    owner = msg.sender;\n  }\n \n  modifier restricted() {\n    if (msg.sender == owner) _;\n  }\n\n  function write(string identity, uint8 file, uint offset, bytes buffer) public restricted {\n    buffer_mappings[identity][file].buffers[offset] = buffer;\n    emit Write(identity);\n  }\n\n  function read(string identity, uint8 file, uint offset) public view returns (bytes buffer) {\n    emit Read(identity, offset);\n    return buffer_mappings[identity][file].buffers[offset];\n  }\n\n  function stat(string identity, uint8 file) public view returns (uint length) {\n    // TODO(cckelly)\n    return 0;\n  }\n\n  function del(string identity) public restricted {\n    for (uint8 i = 0; i < 4; i++) {\n      delete buffer_mappings[identity][i];\n    }\n    emit Delete(identity);\n  }\n}\n",
  "sourcePath": "/Users/charles/Desktop/Development/Ara/ara-filesystem/contracts/Storage.sol",
  "compiler": {
    "name": "solc",
    "version": "0.4.24+commit.e67f0147.Emscripten.clang"
  },
  "schemaVersion": "2.0.0",
  "updatedAt": "2018-06-22T20:49:16.496Z"
}