{
  "contractName": "Storage",
  "abi": [
    {
      "constant": true,
      "inputs": [],
      "name": "owner",
      "outputs": [
        {
          "name": "",
          "type": "address"
        }
      ],
      "payable": false,
      "stateMutability": "view",
      "type": "function"
    },
    {
      "inputs": [],
      "payable": false,
      "stateMutability": "nonpayable",
      "type": "constructor"
    },
    {
      "anonymous": false,
      "inputs": [
        {
          "indexed": false,
          "name": "_identity",
          "type": "string"
        },
        {
          "indexed": false,
          "name": "_largest_key",
          "type": "uint256"
        }
      ],
      "name": "Write",
      "type": "event"
    },
    {
      "anonymous": false,
      "inputs": [
        {
          "indexed": false,
          "name": "_largest_key",
          "type": "uint256"
        },
        {
          "indexed": false,
          "name": "_length",
          "type": "uint256"
        }
      ],
      "name": "Stat",
      "type": "event"
    },
    {
      "anonymous": false,
      "inputs": [
        {
          "indexed": false,
          "name": "_identity",
          "type": "string"
        }
      ],
      "name": "Delete",
      "type": "event"
    },
    {
      "constant": false,
      "inputs": [
        {
          "name": "identity",
          "type": "string"
        },
        {
          "name": "file",
          "type": "uint8"
        },
        {
          "name": "offset",
          "type": "uint8"
        },
        {
          "name": "buffer",
          "type": "bytes"
        }
      ],
      "name": "write",
      "outputs": [],
      "payable": false,
      "stateMutability": "nonpayable",
      "type": "function"
    },
    {
      "constant": true,
      "inputs": [
        {
          "name": "identity",
          "type": "string"
        },
        {
          "name": "file",
          "type": "uint8"
        },
        {
          "name": "offset",
          "type": "uint8"
        }
      ],
      "name": "read",
      "outputs": [
        {
          "name": "buffer",
          "type": "bytes"
        }
      ],
      "payable": false,
      "stateMutability": "view",
      "type": "function"
    },
    {
      "constant": true,
      "inputs": [
        {
          "name": "identity",
          "type": "string"
        },
        {
          "name": "file",
          "type": "uint8"
        }
      ],
      "name": "stat",
      "outputs": [
        {
          "name": "length",
          "type": "uint256"
        }
      ],
      "payable": false,
      "stateMutability": "view",
      "type": "function"
    },
    {
      "constant": false,
      "inputs": [
        {
          "name": "identity",
          "type": "string"
        }
      ],
      "name": "del",
      "outputs": [],
      "payable": false,
      "stateMutability": "nonpayable",
      "type": "function"
    }
  ],
  "bytecode": "0x608060405234801561001057600080fd5b50336000806101000a81548173ffffffffffffffffffffffffffffffffffffffff021916908373ffffffffffffffffffffffffffffffffffffffff160217905550610ecd806100606000396000f30060806040526004361061006d576000357c0100000000000000000000000000000000000000000000000000000000900463ffffffff1680630bca089a146100725780638da5cb5b146100db578063b2b956a914610132578063c70c07be146101fb578063e233732c14610285575b600080fd5b34801561007e57600080fd5b506100d9600480360381019080803590602001908201803590602001908080601f0160208091040260200160405190810160405280939291908181526020018383808284378201915050505050509192919290505050610381565b005b3480156100e757600080fd5b506100f0610699565b604051808273ffffffffffffffffffffffffffffffffffffffff1673ffffffffffffffffffffffffffffffffffffffff16815260200191505060405180910390f35b34801561013e57600080fd5b506101f9600480360381019080803590602001908201803590602001908080601f0160208091040260200160405190810160405280939291908181526020018383808284378201915050505050509192919290803560ff169060200190929190803560ff169060200190929190803590602001908201803590602001908080601f01602080910402602001604051908101604052809392919081815260200183838082843782019150505050505091929192905050506106be565b005b34801561020757600080fd5b5061026f600480360381019080803590602001908201803590602001908080601f0160208091040260200160405190810160405280939291908181526020018383808284378201915050505050509192919290803560ff169060200190929190505050610ac1565b6040518082815260200191505060405180910390f35b34801561029157600080fd5b50610306600480360381019080803590602001908201803590602001908080601f0160208091040260200160405190810160405280939291908181526020018383808284378201915050505050509192919290803560ff169060200190929190803560ff169060200190929190505050610c56565b6040518080602001828103825283818151815260200191508051906020019080838360005b8381101561034657808201518184015260208101905061032b565b50505050905090810190601f1680156103735780820380516001836020036101000a031916815260200191505b509250505060405180910390f35b60008060008060009054906101000a900473ffffffffffffffffffffffffffffffffffffffff1673ffffffffffffffffffffffffffffffffffffffff163373ffffffffffffffffffffffffffffffffffffffff16141561069357600092505b60038360ff1610156105f6576001846040518082805190602001908083835b60208310151561042457805182526020820191506020810190506020830392506103ff565b6001836020036101000a038019825116818451168082178552505050505050905001915050908152602001604051809103902060008460ff1660ff1681526020019081526020016000206002019150600090505b818054905081101561054b576001846040518082805190602001908083835b6020831015156104bc5780518252602082019150602081019050602083039250610497565b6001836020036101000a038019825116818451168082178552505050505050905001915050908152602001604051809103902060008460ff1660ff1681526020019081526020016000206000016000838381548110151561051957fe5b90600052602060002001548152602001908152602001600020600061053e9190610d93565b8080600101915050610478565b6001846040518082805190602001908083835b602083101515610583578051825260208201915060208101905060208303925061055e565b6001836020036101000a038019825116818451168082178552505050505050905001915050908152602001604051809103902060008460ff1660ff168152602001908152602001600020600060018201600090556002820160006105e79190610ddb565b505082806001019350506103e0565b7f4f10916eb5a9437862f847447afc03fb5e011fcb540737254cbfe0542e8e71d5846040518080602001828103825283818151815260200191508051906020019080838360005b8381101561065857808201518184015260208101905061063d565b50505050905090810190601f1680156106855780820380516001836020036101000a031916815260200191505b509250505060405180910390a15b50505050565b6000809054906101000a900473ffffffffffffffffffffffffffffffffffffffff1681565b6000809054906101000a900473ffffffffffffffffffffffffffffffffffffffff1673ffffffffffffffffffffffffffffffffffffffff163373ffffffffffffffffffffffffffffffffffffffff161415610abb57806001856040518082805190602001908083835b60208310151561074c5780518252602082019150602081019050602083039250610727565b6001836020036101000a038019825116818451168082178552505050505050905001915050908152602001604051809103902060008560ff1660ff16815260200190815260200160002060000160008460ff16815260200190815260200160002090805190602001906107c0929190610dfc565b506001846040518082805190602001908083835b6020831015156107f957805182526020820191506020810190506020830392506107d4565b6001836020036101000a038019825116818451168082178552505050505050905001915050908152602001604051809103902060008460ff1660ff168152602001908152602001600020600201829080600181540180825580915050906001820390600052602060002001600090919260ff16909190915055506001846040518082805190602001908083835b6020831015156108ab5780518252602082019150602081019050602083039250610886565b6001836020036101000a038019825116818451168082178552505050505050905001915050908152602001604051809103902060008460ff1660ff168152602001908152602001600020600101548260ff161115610991578160ff166001856040518082805190602001908083835b60208310151561093f578051825260208201915060208101905060208303925061091a565b6001836020036101000a038019825116818451168082178552505050505050905001915050908152602001604051809103902060008560ff1660ff168152602001908152602001600020600101819055505b7f637a48a2e11e88ff1f658c19da200389ebfdbbfbd60df2400559c4ce8bfb76eb846001866040518082805190602001908083835b6020831015156109eb57805182526020820191506020810190506020830392506109c6565b6001836020036101000a038019825116818451168082178552505050505050905001915050908152602001604051809103902060008660ff1660ff168152602001908152602001600020600101546040518080602001838152602001828103825284818151815260200191508051906020019080838360005b83811015610a7f578082015181840152602081019050610a64565b50505050905090810190601f168015610aac5780820380516001836020036101000a031916815260200191505b50935050505060405180910390a15b50505050565b6000806001846040518082805190602001908083835b602083101515610afc5780518252602082019150602081019050602083039250610ad7565b6001836020036101000a038019825116818451168082178552505050505050905001915050908152602001604051809103902060008460ff1660ff1681526020019081526020016000206001015490507f7061c25f464792a10bd23bfba14bb252d7a76c8e3900304dff7b40f9504f17e78161029a604051808381526020018281526020019250505060405180910390a16000811415610b9f5760009150610c4f565b6001846040518082805190602001908083835b602083101515610bd75780518252602082019150602081019050602083039250610bb2565b6001836020036101000a038019825116818451168082178552505050505050905001915050908152602001604051809103902060008460ff1660ff1681526020019081526020016000206000016000828152602001908152602001600020805460018160011615610100020316600290049050810191505b5092915050565b60606001846040518082805190602001908083835b602083101515610c905780518252602082019150602081019050602083039250610c6b565b6001836020036101000a038019825116818451168082178552505050505050905001915050908152602001604051809103902060008460ff1660ff16815260200190815260200160002060000160008360ff1681526020019081526020016000208054600181600116156101000203166002900480601f016020809104026020016040519081016040528092919081815260200182805460018160011615610100020316600290048015610d855780601f10610d5a57610100808354040283529160200191610d85565b820191906000526020600020905b815481529060010190602001808311610d6857829003601f168201915b505050505090509392505050565b50805460018160011615610100020316600290046000825580601f10610db95750610dd8565b601f016020900490600052602060002090810190610dd79190610e7c565b5b50565b5080546000825590600052602060002090810190610df99190610e7c565b50565b828054600181600116156101000203166002900490600052602060002090601f016020900481019282601f10610e3d57805160ff1916838001178555610e6b565b82800160010185558215610e6b579182015b82811115610e6a578251825591602001919060010190610e4f565b5b509050610e789190610e7c565b5090565b610e9e91905b80821115610e9a576000816000905550600101610e82565b5090565b905600a165627a7a72305820d459e3a4c1f5c642772da75875d29dc4a8dec53a9644b10a36940aa4292b72e10029",
  "source": "pragma solidity ^0.4.24;\n\ncontract Storage {\n\n  address public owner;\n\n  // 0 - content/tree file\n  // 1 - content/signatures file\n  // 2 - metadata/tree file\n  // 3 - metadata/signatures file\n  // DID => file index => offset => buffer\n  mapping (string => mapping(uint8 => Buffers)) buffer_mappings;\n\n  struct Buffers {\n    mapping (uint => bytes) buffers;\n    uint largest_key;\n    uint[] keys;\n  }\n\n  event Write(string _identity, uint _largest_key);\n  event Stat(uint _largest_key, uint _length);\n  event Delete(string _identity);\n\n  constructor() public {\n    owner = msg.sender;\n  }\n \n  modifier restricted() {\n    if (msg.sender == owner) _;\n  }\n\n  function write(string identity, uint8 file, uint8 offset, bytes buffer) public restricted {\n    buffer_mappings[identity][file].buffers[offset] = buffer;\n    buffer_mappings[identity][file].keys.push(offset);\n    if (offset > buffer_mappings[identity][file].largest_key) {\n      buffer_mappings[identity][file].largest_key = offset;\n    }\n    emit Write(identity, buffer_mappings[identity][file].largest_key);\n  }\n\n  function read(string identity, uint8 file, uint8 offset) public view returns (bytes buffer) {\n    return buffer_mappings[identity][file].buffers[offset];\n  }\n\n  function stat(string identity, uint8 file) public view returns (uint length) {\n    uint largest_key = buffer_mappings[identity][file].largest_key;\n    emit Stat(largest_key, 666);\n    if (largest_key == 0) {\n      return 0;\n    } else {\n      return largest_key + buffer_mappings[identity][file].buffers[largest_key].length;\n    }\n  }\n\n  function del(string identity) public restricted {\n    for (uint8 i = 0; i < 3; i++) {\n      uint[] storage keys = buffer_mappings[identity][i].keys;\n      for (uint j = 0; j < keys.length; j++) {\n        delete buffer_mappings[identity][i].buffers[keys[j]];\n      }\n      delete buffer_mappings[identity][i];\n    }\n    emit Delete(identity);\n  }\n}\n",
  "sourcePath": "/Users/charles/Desktop/Development/Ara/ara-filesystem/contracts/Storage.sol",
  "compiler": {
    "name": "solc",
    "version": "0.4.24+commit.e67f0147.Emscripten.clang"
  },
  "schemaVersion": "2.0.0",
  "updatedAt": "2018-06-25T18:09:02.065Z"
}