{
  "contractName": "Storage",
  "abi": [
    {
      "constant": true,
      "inputs": [],
      "name": "owner",
      "outputs": [
        {
          "name": "",
          "type": "address"
        }
      ],
      "payable": false,
      "stateMutability": "view",
      "type": "function"
    },
    {
      "inputs": [],
      "payable": false,
      "stateMutability": "nonpayable",
      "type": "constructor"
    },
    {
      "anonymous": false,
      "inputs": [
        {
          "indexed": false,
          "name": "_identity",
          "type": "string"
        }
      ],
      "name": "Commit",
      "type": "event"
    },
    {
      "anonymous": false,
      "inputs": [
        {
          "indexed": false,
          "name": "_identity",
          "type": "string"
        }
      ],
      "name": "Delete",
      "type": "event"
    },
    {
      "constant": false,
      "inputs": [
        {
          "name": "identity",
          "type": "string"
        },
        {
          "name": "file",
          "type": "uint8"
        },
        {
          "name": "offset",
          "type": "uint8"
        },
        {
          "name": "buffer",
          "type": "bytes"
        },
        {
          "name": "last_write",
          "type": "bool"
        }
      ],
      "name": "write",
      "outputs": [],
      "payable": false,
      "stateMutability": "nonpayable",
      "type": "function"
    },
    {
      "constant": true,
      "inputs": [
        {
          "name": "identity",
          "type": "string"
        }
      ],
      "name": "exists",
      "outputs": [
        {
          "name": "doesExist",
          "type": "bool"
        }
      ],
      "payable": false,
      "stateMutability": "view",
      "type": "function"
    },
    {
      "constant": true,
      "inputs": [
        {
          "name": "identity",
          "type": "string"
        },
        {
          "name": "file",
          "type": "uint8"
        },
        {
          "name": "offset",
          "type": "uint8"
        }
      ],
      "name": "read",
      "outputs": [
        {
          "name": "buffer",
          "type": "bytes"
        }
      ],
      "payable": false,
      "stateMutability": "view",
      "type": "function"
    },
    {
      "constant": true,
      "inputs": [
        {
          "name": "identity",
          "type": "string"
        },
        {
          "name": "file",
          "type": "uint8"
        }
      ],
      "name": "stat",
      "outputs": [
        {
          "name": "length",
          "type": "uint256"
        }
      ],
      "payable": false,
      "stateMutability": "view",
      "type": "function"
    },
    {
      "constant": false,
      "inputs": [
        {
          "name": "identity",
          "type": "string"
        }
      ],
      "name": "del",
      "outputs": [],
      "payable": false,
      "stateMutability": "nonpayable",
      "type": "function"
    }
  ],
  "bytecode": "0x608060405234801561001057600080fd5b50336000806101000a81548173ffffffffffffffffffffffffffffffffffffffff021916908373ffffffffffffffffffffffffffffffffffffffff160217905550610f5c806100606000396000f300608060405260043610610078576000357c0100000000000000000000000000000000000000000000000000000000900463ffffffff1680630bca089a1461007d578063261a323e146100e65780633c9765f4146101675780638da5cb5b1461023c578063c70c07be14610293578063e233732c1461031d575b600080fd5b34801561008957600080fd5b506100e4600480360381019080803590602001908201803590602001908080601f0160208091040260200160405190810160405280939291908181526020018383808284378201915050505050509192919290505050610419565b005b3480156100f257600080fd5b5061014d600480360381019080803590602001908201803590602001908080601f0160208091040260200160405190810160405280939291908181526020018383808284378201915050505050509192919290505050610731565b604051808215151515815260200191505060405180910390f35b34801561017357600080fd5b5061023a600480360381019080803590602001908201803590602001908080601f0160208091040260200160405190810160405280939291908181526020018383808284378201915050505050509192919290803560ff169060200190929190803560ff169060200190929190803590602001908201803590602001908080601f01602080910402602001604051908101604052809392919081815260200183838082843782019150505050505091929192908035151590602001909291905050506107c2565b005b34801561024857600080fd5b50610251610b40565b604051808273ffffffffffffffffffffffffffffffffffffffff1673ffffffffffffffffffffffffffffffffffffffff16815260200191505060405180910390f35b34801561029f57600080fd5b50610307600480360381019080803590602001908201803590602001908080601f0160208091040260200160405190810160405280939291908181526020018383808284378201915050505050509192919290803560ff169060200190929190505050610b65565b6040518082815260200191505060405180910390f35b34801561032957600080fd5b5061039e600480360381019080803590602001908201803590602001908080601f0160208091040260200160405190810160405280939291908181526020018383808284378201915050505050509192919290803560ff169060200190929190803560ff169060200190929190505050610cc9565b6040518080602001828103825283818151815260200191508051906020019080838360005b838110156103de5780820151818401526020810190506103c3565b50505050905090810190601f16801561040b5780820380516001836020036101000a031916815260200191505b509250505060405180910390f35b60008060008060009054906101000a900473ffffffffffffffffffffffffffffffffffffffff1673ffffffffffffffffffffffffffffffffffffffff163373ffffffffffffffffffffffffffffffffffffffff16141561072b57600092505b60038360ff16101561068e576001846040518082805190602001908083835b6020831015156104bc5780518252602082019150602081019050602083039250610497565b6001836020036101000a038019825116818451168082178552505050505050905001915050908152602001604051809103902060008460ff1660ff1681526020019081526020016000206002019150600090505b81805490508110156105e3576001846040518082805190602001908083835b602083101515610554578051825260208201915060208101905060208303925061052f565b6001836020036101000a038019825116818451168082178552505050505050905001915050908152602001604051809103902060008460ff1660ff168152602001908152602001600020600001600083838154811015156105b157fe5b9060005260206000200154815260200190815260200160002060006105d69190610e22565b8080600101915050610510565b6001846040518082805190602001908083835b60208310151561061b57805182526020820191506020810190506020830392506105f6565b6001836020036101000a038019825116818451168082178552505050505050905001915050908152602001604051809103902060008460ff1660ff1681526020019081526020016000206000600182016000905560028201600061067f9190610e6a565b50508280600101935050610478565b7f4f10916eb5a9437862f847447afc03fb5e011fcb540737254cbfe0542e8e71d5846040518080602001828103825283818151815260200191508051906020019080838360005b838110156106f05780820151818401526020810190506106d5565b50505050905090810190601f16801561071d5780820380516001836020036101000a031916815260200191505b509250505060405180910390a15b50505050565b6000806001836040518082805190602001908083835b60208310151561076c5780518252602082019150602081019050602083039250610747565b6001836020036101000a038019825116818451168082178552505050505050905001915050908152602001604051809103902060008060ff16815260200190815260200160002060020180549050119050919050565b6000809054906101000a900473ffffffffffffffffffffffffffffffffffffffff1673ffffffffffffffffffffffffffffffffffffffff163373ffffffffffffffffffffffffffffffffffffffff161415610b3957816001866040518082805190602001908083835b602083101515610850578051825260208201915060208101905060208303925061082b565b6001836020036101000a038019825116818451168082178552505050505050905001915050908152602001604051809103902060008660ff1660ff16815260200190815260200160002060000160008560ff16815260200190815260200160002090805190602001906108c4929190610e8b565b506001856040518082805190602001908083835b6020831015156108fd57805182526020820191506020810190506020830392506108d8565b6001836020036101000a038019825116818451168082178552505050505050905001915050908152602001604051809103902060008560ff1660ff168152602001908152602001600020600201839080600181540180825580915050906001820390600052602060002001600090919260ff16909190915055506001856040518082805190602001908083835b6020831015156109af578051825260208201915060208101905060208303925061098a565b6001836020036101000a038019825116818451168082178552505050505050905001915050908152602001604051809103902060008560ff1660ff168152602001908152602001600020600101548360ff161115610a95578260ff166001866040518082805190602001908083835b602083101515610a435780518252602082019150602081019050602083039250610a1e565b6001836020036101000a038019825116818451168082178552505050505050905001915050908152602001604051809103902060008660ff1660ff168152602001908152602001600020600101819055505b8015610b38577f81542de3da6f1f216fee8163fc0618913251c9f50b0a7385cad8a684d82cde5c856040518080602001828103825283818151815260200191508051906020019080838360005b83811015610afd578082015181840152602081019050610ae2565b50505050905090810190601f168015610b2a5780820380516001836020036101000a031916815260200191505b509250505060405180910390a15b5b5050505050565b6000809054906101000a900473ffffffffffffffffffffffffffffffffffffffff1681565b6000806001846040518082805190602001908083835b602083101515610ba05780518252602082019150602081019050602083039250610b7b565b6001836020036101000a038019825116818451168082178552505050505050905001915050908152602001604051809103902060008460ff1660ff1681526020019081526020016000206001015490506000811415610c025760009150610cc2565b610cbf6001856040518082805190602001908083835b602083101515610c3d5780518252602082019150602081019050602083039250610c18565b6001836020036101000a038019825116818451168082178552505050505050905001915050908152602001604051809103902060008560ff1660ff168152602001908152602001600020600001600083815260200190815260200160002080546001816001161561010002031660029004905082610e0690919063ffffffff16565b91505b5092915050565b60606001846040518082805190602001908083835b602083101515610d035780518252602082019150602081019050602083039250610cde565b6001836020036101000a038019825116818451168082178552505050505050905001915050908152602001604051809103902060008460ff1660ff16815260200190815260200160002060000160008360ff1681526020019081526020016000208054600181600116156101000203166002900480601f016020809104026020016040519081016040528092919081815260200182805460018160011615610100020316600290048015610df85780601f10610dcd57610100808354040283529160200191610df8565b820191906000526020600020905b815481529060010190602001808311610ddb57829003601f168201915b505050505090509392505050565b60008183019050828110151515610e1957fe5b80905092915050565b50805460018160011615610100020316600290046000825580601f10610e485750610e67565b601f016020900490600052602060002090810190610e669190610f0b565b5b50565b5080546000825590600052602060002090810190610e889190610f0b565b50565b828054600181600116156101000203166002900490600052602060002090601f016020900481019282601f10610ecc57805160ff1916838001178555610efa565b82800160010185558215610efa579182015b82811115610ef9578251825591602001919060010190610ede565b5b509050610f079190610f0b565b5090565b610f2d91905b80821115610f29576000816000905550600101610f11565b5090565b905600a165627a7a72305820a2efcd482be13d7c28d9194d661e9f7fd3dbee217b35655cb9120a01c81f93cf0029",
  "source": "pragma solidity ^0.4.24;\n\nimport 'openzeppelin-solidity/contracts/math/SafeMath.sol';\n\ncontract Storage {\n\n  using SafeMath for uint256;\n\n  address public owner;\n\n  // 0 - metadata/tree file\n  // 1 - metadata/signatures file\n  // DID => file index => offset => buffer\n  mapping (string => mapping(uint8 => Buffers)) buffer_mappings;\n\n  struct Buffers {\n    mapping (uint256 => bytes) buffers;\n    uint256 largest_key;\n    uint256[] keys;\n  }\n\n  event Commit(string _identity);\n  event Delete(string _identity);\n\n  constructor() public {\n    owner = msg.sender;\n  }\n \n  modifier restricted() {\n    if (msg.sender == owner) _;\n  }\n\n  function write(string identity, uint8 file, uint8 offset, bytes buffer, bool last_write) public restricted {\n    buffer_mappings[identity][file].buffers[offset] = buffer;\n    buffer_mappings[identity][file].keys.push(offset);\n    if (offset > buffer_mappings[identity][file].largest_key) {\n      buffer_mappings[identity][file].largest_key = offset;\n    }\n    if (last_write) {\n      emit Commit(identity);\n    }\n  }\n\n  function exists(string identity) public view returns (bool doesExist) {\n    return buffer_mappings[identity][0].keys.length > 0;\n  }\n\n  function read(string identity, uint8 file, uint8 offset) public view returns (bytes buffer) {\n    return buffer_mappings[identity][file].buffers[offset];\n  }\n\n  function stat(string identity, uint8 file) public view returns (uint256 length) {\n    uint256 largest_key = buffer_mappings[identity][file].largest_key;\n    if (largest_key == 0) {\n      return 0;\n    } else {\n      return largest_key.add(buffer_mappings[identity][file].buffers[largest_key].length);\n    }\n  }\n\n  function del(string identity) public restricted {\n    for (uint8 i = 0; i < 3; i++) {\n      uint256[] storage keys = buffer_mappings[identity][i].keys;\n      for (uint256 j = 0; j < keys.length; j++) {\n        delete buffer_mappings[identity][i].buffers[keys[j]];\n      }\n      delete buffer_mappings[identity][i];\n    }\n    emit Delete(identity);\n  }\n}\n",
  "sourcePath": "/Users/ericjiang/Littlstar/ara-filesystem/contracts/Storage.sol",
  "compiler": {
    "name": "solc",
    "version": "0.4.24+commit.e67f0147.Emscripten.clang"
  },
  "schemaVersion": "2.0.1",
  "updatedAt": "2018-07-13T17:56:36.197Z"
}